:100000000C9434000C943E000C943E000C943E0082
:100010000C943E000C943E000C943E000C943E0068
:100020000C943E000C943E000C943E000C943E0058
:100030000C943E000C943E000C943E000C943E0048
:100040000C943E000C943E000C943E000C943E0038
:100050000C943E000C943E000C943E000C943E0028
:100060000C943E000C943E0011241FBECFEFD8E04C
:10007000DEBFCDBF0E9440000C9464000C940000D1
:100080008FEF84B98AB9ECE7F0E0808183648083E4
:10009000EAE7F0E08081836880837894EAE7F0E023
:1000A00080818064808380917A0086FDFCCF80917E
:1000B000780085B9809179008BB983ED90E3019741
:0C00C000F1F700C00000EACFF894FFCF79
:00000001FF
