:100000000C9434000C943E000C943E000C943E0082
:100010000C943E000C943E000C943E000C943E0068
:100020000C943E000C943E000C943E000C943E0058
:100030000C943E000C943E000C943E000C943E0048
:100040000C943E000C943E000C943E000C943E0038
:100050000C943E000C943E000C943E000C943E0028
:100060000C943E000C943E0011241FBECFEFD8E04C
:10007000DEBFCDBF0E9440000C9459000C940000DC
:100080008FEF84B915B88FEF85B92FE38DE093E03A
:10009000215080409040E1F700C0000015B82FE3E8
:1000A0008DE093E0215080409040E1F700C00000D7
:0600B000EACFF894FFCF37
:00000001FF
