S01700004763634170706C69636174696F6E322E737265635A
S11300000C9434000C943E000C943E000C943E007E
S11300100C943E000C943E000C943E000C943E0064
S11300200C943E000C943E000C943E000C943E0054
S11300300C943E000C943E000C943E000C943E0044
S11300400C943E000C943E000C943E000C943E0034
S11300500C943E000C943E000C943E000C943E0024
S11300600C943E000C943E0011241FBECFEFD8E048
S1130070DEBFCDBF0E9440000C9461000C940000D0
S11300808AB181608AB984B184B985B185B983B1F3
S113009090E08130910549F4E3EDF0E33197F1F715
S11300A000C000002BB121602BB9029781F783EDCA
S11300B090E30197F1F700C000008BB18E7F8BB9FC
S10900C0E6CFF894FFCF27
S9030000FC
