:100000000C9434000C9449000C9449000C94490061
:100010000C9449000C9449000C9449000C9449003C
:100020000C9449000C9449000C9449000C9449002C
:100030000C9449000C9449000C9449000C9449001C
:100040000C9449000C9449000C9449000C9449000C
:100050000C9449000C9449000C9449000C944900FC
:100060000C9449000C94490011241FBECFEFD8E036
:10007000DEBFCDBF11E0A0E0B1E0EEEAF5E002C0E6
:1000800005900D92AA30B107D9F70E9471000C9427
:10009000D5020C9400009C01E0E8F0E090819064AF
:1000A00090833093890020938800E1E8F0E080811C
:1000B000896080830895E0E8F0E080818F7B808311
:1000C0001092890010928800E1E8F0E08081877F3B
:1000D0008083089587E893E10197F1F700C000005D
:1000E0000895CF93DF93CDB7DEB72A970FB6F89474
:1000F000DEBF0FBECDBF8FE187B918B88BB982E0E4
:1001000084B98AE0E0E0F1E0DE01119601900D9201
:100110008A95E1F700E010E044C2F701EE0FFF1FFF
:1001200081E090E08C0F9D1FE80FF91FC080D18007
:10013000F801EE0FFF1FE80FF91F808188B90E94B8
:100140006A00A9B0B12C0115110509F069C0CA14E3
:10015000DB0489F49EE1A916B10469F408C00E9489
:100160006A00A9B0B12C8AE797E00E944B00AC145A
:10017000BD04A9F355C0CA14DB0489F48DE1A816A7
:10018000B10469F408C00E946A00A9B0B12C8CE0E7
:1001900097E00E944B00AC14BD04A9F341C0CA14FF
:1001A000DB0489F49BE1A916B10469F408C00E943C
:1001B0006A00A9B0B12C89EA96E00E944B00AC1409
:1001C000BD04A9F32DC0CA14DB0489F487E1A81685
:1001D000B10469F408C00E946A00A9B0B12C86E499
:1001E00096E00E944B00AC14BD04A9F319C0CA14D8
:1001F000DB0489F49FE0A916B10469F408C00E94E9
:100200006A00A9B0B12C8EEE95E00E944B00AC14B0
:10021000BD04A9F305C0CA14DB0411F00E945B0001
:100220000130110509F069C0AC14BD0489F48EE1F8
:10023000A816B10469F408C00E946A00A9B0B12CE4
:1002400085E895E00E944B00AC14BD04A9F355C0AD
:10025000AC14BD0489F49DE1A916B10469F408C089
:100260000E946A00A9B0B12C89E495E00E944B007D
:10027000AC14BD04A9F341C0AC14BD0489F48BE1F6
:10028000A816B10469F408C00E946A00A9B0B12C94
:100290008DEF94E00E944B00AC14BD04A9F32DC077
:1002A000AC14BD0489F497E1A916B10469F408C03F
:1002B0000E946A00A9B0B12C83EB94E00E944B002D
:1002C000AC14BD04A9F319C0AC14BD0489F48FE0CB
:1002D000A816B10469F408C00E946A00A9B0B12C44
:1002E0008FE694E00E944B00AC14BD04A9F305C056
:1002F000AC14BD0411F00E945B000230110509F03E
:1003000069C0AC14BD0489F49EE1A916B10469F476
:1003100008C00E946A00A9B0B12C85E595E00E9452
:100320004B00AC14BD04A9F355C0AC14BD0489F452
:100330008DE1A816B10469F408C00E946A00A9B052
:10034000B12C85EF93E00E944B00AC14BD04A9F3DF
:1003500041C0AC14BD0489F49BE1A916B10469F451
:1003600008C00E946A00A9B0B12C84EF9EE00E94F0
:100370004B00AC14BD04A9F32DC0AC14BD0489F42A
:1003800087E1A816B10469F408C00E946A00A9B008
:10039000B12C88E19EE00E944B00AC14BD04A9F38F
:1003A00019C0AC14BD0489F49FE0A916B10469F426
:1003B00008C00E946A00A9B0B12C82E59DE00E94AD
:1003C0004B00AC14BD04A9F305C0AC14BD0411F07E
:1003D0000E945B000330110509F069C0AC14BD0434
:1003E00089F48EE1A816B10469F408C00E946A007D
:1003F000A9B0B12C8CE89CE00E944B00AC14BD0469
:10040000A9F355C0AC14BD0489F49DE1A916B1044B
:1004100069F408C00E946A00A9B0B12C8CED9BE081
:100420000E944B00AC14BD04A9F341C0AC14BD0440
:1004300089F48BE1A816B10469F408C00E946A002F
:10044000A9B0B12C8AE09BE00E944B00AC14BD0423
:10045000A9F32DC0AC14BD0489F497E1A916B10429
:1004600069F408C00E946A00A9B0B12C82E99AE040
:100470000E944B00AC14BD04A9F319C0AC14BD0418
:1004800089F48FE0A816B10469F408C00E946A00DC
:10049000A9B0B12C8AEF99E00E944B00AC14BD04C6
:1004A000A9F305C0AC14BD0411F00E945B00043038
:1004B000110509F069C0AC14BD0489F49EE1A916C8
:1004C000B10469F408C00E946A00A9B0B12C86E6A4
:1004D00099E00E944B00AC14BD04A9F355C0AC14C4
:1004E000BD0489F48DE1A816B10469F408C00E9426
:1004F0006A00A9B0B12C8EED98E00E944B00AC14BC
:10050000BD04A9F341C0AC14BD0489F49BE1A91654
:10051000B10469F408C00E946A00A9B0B12C8AEA4B
:100520009AE00E944B00AC14BD04A9F32DC0AC149A
:10053000BD0489F487E1A816B10469F408C00E94DB
:100540006A00A9B0B12C8AEE97E00E944B00AC146F
:10055000BD04A9F319C0AC14BD0489F49FE0A91629
:10056000B10469F408C00E946A00A9B0B12C88EEF9
:100570009DE10E944B00AC14BD04A9F305C0AC146E
:10058000BD0411F00E945B008FEFE81AF80A02C068
:10059000E12CF12C95E0E916F1040CF4BECD0F5FCF
:0E05A0001F4F05301105A4F3B5CDF894FFCF21
:0A05AE001E001D001B0017000F00C7
:00000001FF
