S01B0000434F4E54524F4C415220554E204C45442056322E73726563F5
S11300000C9434000C943E000C943E000C943E007E
S11300100C943E000C943E000C943E000C943E0064
S11300200C943E000C943E000C943E000C943E0054
S11300300C943E000C943E000C943E000C943E0044
S11300400C943E000C943E000C943E000C943E0034
S11300500C943E000C943E000C943E000C943E0024
S11300600C943E000C943E0011241FBECFEFD8E048
S1130070DEBFCDBF0E9440000C9463000C940000CE
S113008084B1816084B98AB18E7F8AB98BB183606F
S11300908BB989B1813019F0823059F0FACF83EDF0
S11300A090E30197F1F700C0000085B18E7F85B918
S11300B0F0CF83ED90E30197F1F700C0000085B124
S10D00C0816085B9E6CFF894FFCF04
S9030000FC
