:100000000C9434000C943E000C943E000C943E0082
:100010000C943E000C943E000C943E000C943E0068
:100020000C943E000C943E000C943E000C943E0058
:100030000C943E000C943E000C943E000C943E0048
:100040000C943E000C943E000C943E000C943E0038
:100050000C943E000C943E000C943E000C943E0028
:100060000C943E000C943E0011241FBECFEFD8E04C
:10007000DEBFCDBF0E9440000C9461000C940000D4
:100080008AB180628AB9E1E8F0E080818160808392
:1000900086B386BB109285001092840003C08BB19A
:1000A00080628BB9B09BFBCF86B386BB1092850074
:1000B0001092840003C08BB18F7D8BB9B09BFBCFB6
:0600C000E7CFF894FFCF2A
:00000001FF
