:100000000C9434000C944B000C947F000C94490029
:100010000C9449000C9449000C9449000C9449003C
:100020000C9449000C9449000C9449000C9449002C
:100030000C9449000C9449000C9449000C9449001C
:100040000C9449000C9449000C9449000C9449000C
:100050000C9449000C9449000C9449000C944900FC
:100060000C9449000C94490011241FBECFEFD8E036
:10007000DEBFCDBF11E0A0E0B1E0ECEAF1E002C0EC
:1000800005900D92A230B107D9F70E94B4000C94EC
:10009000D4000C9400001F920F920FB60F921124FF
:1000A0002F933F938F939F93EF93FF93F89483ED58
:1000B00090E30197F1F700C00000E8E8F0E08081EC
:1000C00091812091000130910101821B930B91835A
:1000D000808380819181069730F485E090E0909351
:1000E0008900809388007894FF91EF919F918F9180
:1000F0003F912F910F900FBE0F901F9018951F9258
:100100000F920FB60F9211242F933F938F939F93CB
:10011000EF93FF93F89483ED90E30197F1F700C01C
:100120000000E8E8F0E020813181809100019091A9
:100130000101820F931F91838083808191818A3F87
:10014000910530F08AEF90E09093890080938800C9
:100150007894FF91EF919F918F913F912F910F9004
:100160000FBE0F901F90189584B1826084B98BB137
:100170008C608BB9E9E6F0E080818A6080838DB382
:1001800083608DBB85E090E0909389008093880028
:10019000E0E8F0E0808181688083E1E8F0E0808140
:0C01A0008A6080837894FFCFF894FFCF32
:0201AC0005004C
:00000001FF
