S00D000049522852292E73726563D9
S11300000C9434000C943E000C943E000C943E007E
S11300100C943E000C943E000C943E000C943E0064
S11300200C943E000C943E000C943E000C943E0054
S11300300C943E000C943E000C943E000C943E0044
S11300400C943E000C943E000C943E000C943E0034
S11300500C943E000C943E000C943E000C943E0024
S11300600C943E000C943E0011241FBECFEFD8E048
S1130070DEBFCDBF0E9461000C9496000C9400007A
S11300808AB18AB98BB180618BB986B386BBE1E84A
S1130090F0E080818160808310928500109284005A
S11300A016BC20E030E007C085B5866085BDB09BF6
S11300B0FBCF2F5F3F4F29303105CCF386B590E05D
S11300C0089584B18F6084B985B185B90E944000D8
S11300D08130910541F4E7EAF1E63197F1F700C088
S11300E0000021E025B98230910549F4E7EAF1E600
S11300F03197F1F700C0000025B12E7F25B9833078
S1130100910541F4E7EAF1E63197F1F700C0000008
S113011022E025B90497D4F287EA91E60197F1F732
S113012000C0000085B18D7F85B9D0CFF894FFCF92
S9030000FC
