:100000000C9434000C9451000C9451000C94510049
:100010000C9451000C9451000C9451000C9451001C
:100020000C9451000C9451000C9451000C9451000C
:100030000C9451000C9451000C9451000C945100FC
:100040000C9451000C9451000C9451000C945100EC
:100050000C9451000C9451000C9451000C945100DC
:100060000C9451000C94510011241FBECFEFD8E026
:10007000DEBFCDBF11E0A0E0B1E0EAE0F7E002C0F2
:1000800005900D92A831B107D9F721E0A8E1B1E0C0
:1000900001C01D92A232B207E1F70E9411010C9437
:1000A00083030C940000289885E08A95F1F70000FE
:1000B000289A0895CF93C62F882311F0299A01C05A
:1000C000299889B18F709C2F907F892B8BB90E94C2
:1000D000530069B1862F8F7090E1C99FB001112440
:1000E000682B6BB90E9453008FE39FE10197F1F7F2
:1000F00000C00000CF91089584B1836084B98AB1B3
:10010000806F8AB9289889B18F7080638BB92FEF7F
:1001100081EE94E0215080409040E1F700C0000063
:100120000E9453008FE19EE40197F1F700C00000A8
:100130000E9453008FE891E00197F1F700C00000A2
:100140000E9453008FE891E00197F1F700C0000092
:1001500089B18F7080628BB90E9453008FE891E063
:100160000197F1F700C000006CE280E00E945A00A5
:1001700068E080E00E945A0061E080E00E945A003E
:1001800066E080E00E945A006CE080E00E945A0025
:100190000895CF93DF93FC016081662341F0EC0169
:1001A000219681E00E945A0069916111FACFDF9196
:1001B000CF910895EAE7F0E08081887F808387E02F
:1001C0008083ECE7F0E080818F7D80838081806494
:1001D000808380818F7780830895ECE7F0E09081C1
:1001E000907F90839081892B8083EAE7F0E0808183
:1001F0008068808385E38A95F1F7000080818064C0
:100200008083808184FFFDCFEAE7F0E08081806118
:10021000808380818F7780838091780090917900AE
:1002200008950E947C000E94DA0016E961E080E0F7
:100230000E945A0087E091E00E94C9002FEF38E346
:1002400083E0215030408040E1F700C0000060ECC6
:1002500080E00E945A0080E091E00E94C9009FE780
:100260002CE931E0915020403040E1F700C000001F
:1002700080E090E00E94ED009C01129FC001139F5E
:10028000900D1124992314F481509C4F892F990FBC
:10029000990B85958595EC016496BE010D2E000C99
:1002A000880B990B0E94750260931C0170931D01CD
:1002B00080931E0190931F014AE061E271E0CE013C
:1002C0000E944E0365EC80E00E945A0081E291E0BA
:1002D0000E94C9003FE78CE991E031508040904096
:1002E000E1F700C0000067EC80E00E945A0083E163
:1002F00091E00E94C9002FE73CE981E021503040A5
:100300008040E1F700C00000C0901C01D0901D01AA
:10031000E0901E01F0901F01C701B6010E94010389
:100320009B01AC01C701B6010E94D00120E030E082
:1003300040E85FE30E94D1016093180170931901B6
:1003400080931A0190931B010E943D02DC01CB01B6
:100350004AE060E271E00E944E0368EC80E00E9497
:100360005A0080E291E00E94C9009FE72CE931E049
:10037000915020403040E1F700C000006BEC80E07D
:100380000E945A0085E191E00E94C9008FE79CE934
:1003900021E0815090402040E1F700C0000046CFAE
:1003A0005058BB27AA270E94E8010C94C7020E945C
:1003B000B90238F00E94C00220F039F49F3F19F4CE
:1003C00026F40C94B6020EF4E095E7FB0C94B00210
:1003D000E92F0E94D80258F3BA17620773078407FF
:1003E000950720F079F4A6F50C94FA020EF4E09546
:1003F0000B2EBA2FA02D0B01B90190010C01CA01DF
:10040000A0011124FF27591B99F0593F50F4503E89
:1004100068F11A16F040A22F232F342F4427585F7B
:10042000F3CF469537952795A795F0405395C9F793
:100430007EF41F16BA0B620B730B840BBAF091504B
:10044000A1F0FF0FBB1F661F771F881FC2F70EC0EA
:10045000BA0F621F731F841F48F4879577956795BD
:10046000B795F7959E3F08F0B0CF9395880F08F0A9
:100470009927EE0F9795879508950E9444026894F6
:10048000B1110C94FB0208950E94E00288F09F577E
:1004900098F0B92F9927B751B0F0E1F0660F771FA8
:1004A000881F991F1AF0BA95C9F714C0B13091F09E
:1004B0000E94FA02B1E008950C94FA02672F782F97
:1004C0008827B85F39F0B93FCCF386957795679563
:1004D000B395D9F73EF490958095709561957F4FCF
:1004E0008F4F9F4F0895E89409C097FB3EF4909575
:1004F0008095709561957F4F8F4F9F4F9923A9F0FD
:10050000F92F96E9BB279395F6958795779567958B
:10051000B795F111F8CFFAF4BB0F11F460FF1BC0CF
:100520006F5F7F4F8F4F9F4F16C0882311F096E962
:1005300011C0772321F09EE8872F762F05C0662310
:1005400071F096E8862F70E060E02AF09A95660FC9
:10055000771F881FDAF7880F9695879597F9089582
:1005600097F99F6780E870E060E008959FEF80EC66
:10057000089500240A941616170618060906089509
:1005800000240A9412161306140605060895092E6F
:100590000394000C11F4882352F0BB0F40F4BF2BDE
:1005A00011F460FF04C06F5F7F4F8F4F9F4F08951E
:1005B00057FD9058440F551F59F05F3F71F0479514
:1005C000880F97FB991F61F09F3F79F087950895F9
:1005D000121613061406551FF2CF4695F1DF08C018
:1005E000161617061806991FF1CF86957105610535
:1005F00008940895E894BB2766277727CB0197F9DD
:1006000008950E94E002E8F09E37E8F09639B8F4C9
:100610009E3848F4672F782F8827985FF9CF869502
:100620007795679593959539D0F3B62FB1706B0F89
:10063000711D811D20F487957795679593950C948E
:1006400025030C9440030C94FB02882371F4772358
:1006500021F09850872B762F07C0662311F4992735
:100660000DC09051862B70E060E02AF09A95660FDD
:10067000771F881FDAF7880F9695879597F9089561
:100680009F3F31F0915020F4879577956795B79506
:10069000880F911D9695879597F90895BB274A3045
:1006A00031F4992322F4BDE2909581959F4F0C94EB
:1006B0005A03BB27FB015527AA27880F991FAA1F9A
:1006C000A41710F0A41B83955051B9F7A05DAA336D
:1006D00008F0A95DA193009779F7B111B193119238
:1006E000CB010C947303DC01FC01672F719177231C
:1006F000E1F7329704C07C916D9370836291AE17DD
:0A070000BF07C8F30895F894FFCF77
:10070A0054656D703A200050524143544943412088
:08071A003133002E00274300DB
:00000001FF
