:100000000C9434000C944B000C947C000C9449002C
:100010000C9449000C9449000C9449000C9449003C
:100020000C9449000C9449000C9449000C9449002C
:100030000C9449000C9449000C9449000C9449001C
:100040000C9449000C9449000C9449000C9449000C
:100050000C9449000C9449000C9449000C944900FC
:100060000C9449000C94490011241FBECFEFD8E036
:10007000DEBFCDBF11E0A0E0B1E0E2EEF1E002C0F2
:1000800005900D92A430B107D9F70E94AD000C94F1
:10009000EF000C9400001F920F920FB60F921124E4
:1000A0002F933F938F939F93F89483ED90E3019761
:1000B000F1F700C000002091000130910101809112
:1000C000020190910301821B930B90930301809393
:1000D00002018536910534F484E690E090930301A3
:1000E0008093020178949F918F913F912F910F906F
:1000F0000FBE0F901F9018951F920F920FB60F9280
:1001000011242F933F938F939F93F89483ED90E363
:100110000197F1F700C0000020910001309101012A
:100120008091020190910301820F931F909303012C
:1001300080930201803D974034F080ED97E09093EA
:1001400003018093020178949F918F913F912F91A9
:100150000F900FBE0F901F9018958BB18C608BB9CC
:10016000E9E6F0E080818A6080838DB383608DBB97
:10017000789465E070E080910201909103010E9403
:10018000C200F7CF4AB121E030E002C0220F331F96
:100190006A95E2F7422B4AB9E1E8F0E0408141601C
:1001A000408346B346BB44275527481B590B509301
:1001B0008500409384004BB1422B4BB9B09BFECFDE
:1001C00036B336BB81529E44909385008093840061
:1001D0008BB1209528232BB9B09BFECF0895F894BE
:0201E000FFCF4F
:0401E2006400640051
:00000001FF
