:100000000C943E000C9448000C9448000C9448005A
:100010000C9448000C9448000C9448000C94480040
:100020000C9448000C9448000C9448000C94480030
:100030000C9448000C9448000C9448000C94480020
:100040000C9448000C9448000C9448000C94480010
:100050000C9448000C9448000C9448000C94480000
:100060000C9448000C9448005D005F00620065003D
:1000700068006B006E0071007400770011241FBED1
:10008000CFEFD8E0DEBFCDBF0E947D000C94AA0068
:100090000C940000843419F49AB19F609AB98234A8
:1000A00019F484B18F6084B908958A30910510F5F0
:1000B000FC01EC5CFF4F0C94A4008BB18BB98BB1AD
:1000C00081608BB98BB182608BB98BB183608BB946
:1000D0008BB184608BB98BB185608BB98BB1866035
:1000E0008BB98BB187608BB98BB188608BB98BB1C1
:1000F00089608BB98BB18BB908950E94950084E417
:100100000E944A0000E010E0C0E0D0E005C08FEFA0
:100110009FEF0E949B002196C031D105C4F30F5F71
:100120001F4FC8010E945500EFCFE1E8F0E0808149
:1001300081608083089526B326BB909385008093C9
:100140008400B09BFECF0895EE0FFF1F0590F49141
:08015000E02D0994F894FFCFA3
:00000001FF
